:1000000000000020FD040000F79C0000FD9C0000A3
:10001000039D0000099D00000F9D000000000000EE
:100020000000000000000000000000006D0500005E
:10003000159D00000000000013060000730600007C
:10004000B59B0000C39B0000D19B0000DF9B00001C
:10005000ED9B0000FB9B0000099C0000179C00002A
:10006000259C0000339C0000419C00004F9C000038
:100070005D9C00006B9C0000799C0000879C000048
:10008000959C00001B9D0000219D0000279D000005
:100090002D9D0000339D0000399D00003F9D000014
:1000A000459D00004B9D0000519D0000579D0000A4
:1000B0005D9D0000639D0000699D0000A39C000001
:1000C0006F9D0000B19C0000759D0000BF9C00006A
:1000D0007B9D0000CD9C0000819D0000879D00005D
:1000E0008D9D0000939D0000999D00009F9D000044
:1000F000A59D0000AB9D0000B19D0000B79D0000D4
:100100000D0500000D0500000D0500000D050000A7
:10011000BD9D0000C39D0000C99D0000CF9D000053
:10012000D59D0000DB9D0000E19D0000E79D0000E3
:10013000ED9D0000F39D0000F99D0000FF9D000073
:10014000059E00000B9E0000DB9C0000119E00003D
:10015000E99C0000179E00001D9E0000239E0000E9
:10016000299E00002F9E0000359E00003B9E00004F
:10017000419E0000479E00004D9E0000539E0000DF
:10018000599E00000D0500000D0500000D05000042
:100190000D0500000D0500000D0500000D05000017
:1001A0000D0500000D0500000D0500000D05000007
:1001B0000D0500000D0500000D0500000D050000F7
:1001C0000D0500000D0500000D0500000D050000E7
:1003F0000D0500000D0500000D050000FFFFFFFFCB
:10040000FFFFFFFFFFFFFFFFFFFFFFFFFEFFFFFFFD
:1004400010B5054C237833B9044B13B10448AFF30E
:1004500000800123237010BD7010002000000000F8
:100460009027010008B5034B1BB103490348AFF3C4
:10047000008008BD000000007410002090270100DB
:10048000A3F5803A704700BF174B002B08BF134BF2
:100490009D46FFF7F5FF00218B460F461348144A8F
:1004A000121A0EF045FC0E4B002B00D098470D4B56
:1004B000002B00D098470020002104000D000D48BB
:1004C000002802D00C480EF00FF90EF053F920006E
:1004D000290003F0AFFC0EF013F900BF0000080084
:1004E0000000000095A00000000000207010002017
:1004F000D4A50020E9E6000021E7000072B608F06C
:1005000071FF08F007FF62B6FFF7BEFFFFF7FEBFFF
:1005100080F309887047EFF309807047684680F3DD
:1005200009885A480078C00714BF0220032080F3CE
:1005300014887047DFF858C1EFF305831B0618BF16
:100540006047EFF31483DB0708BF604700DF7047A5
:10055000DFF840C1EFF305831B0618BF6047EFF3D8
:100560001483DB0708BF604700DF7047EFF30980A3
:10057000816911F8021CE1BB90E80F1010B5E0474B
:10058000BDE81040EFF3098C8CE80700424B93E87C
:100590000600914208BF704741B91EF0100F16D1F6
:1005A0003E49086820F00100086010E01EF0100FBE
:1005B00006BF2CED108A0120002081F825002CE9CF
:1005C000F00FC1F828C00CB40BF07CF80CBC1A601A
:1005D000D2F828C0BCE8F00F92F8250000280EBF22
:1005E0006FF0020E6FF0120EBCEC108A8CF30988CB
:1005F000704710B52A4A1268914209D8294C54F81C
:10060000214090E80F10A047EFF3098C8CE80F0011
:1006100010BD10B50AF0C8FFBDE810401E4B93E8AE
:100620000600914208BF7047EFF3098C1EF0100FCF
:1006300006BF2CED108A0120002081F825002CE94E
:10064000F00FC1F828C00CB40BF03CF80CBC1A60D9
:10065000D2F828C0BCE8F00F92F8250000280EBFA1
:100660006FF0020E6FF0120EBCEC108A8CF309884A
:10067000704710B50BF008F8FFF7CEBF10B50BF0C0
:1006800001F80BF001F8FFF7C7BF0000C01501002B
:1006900035AF000051AF000070A5002034EF00E03E
:1006A00000000000FCFFFFFF81F0004102E000BFFE
:1006B00083F0004330B54FEA41044FEA430594EA22
:1006C000050F08BF90EA020F1FBF54EA000C55EA5D
:1006D000020C7FEA645C7FEA655C00F0E2804FEA2E
:1006E0005454D4EB5555B8BF6D420CDD2C4480EA10
:1006F000020281EA030382EA000083EA010180EA40
:10070000020281EA0303362D88BF30BD11F0004F8D
:100710004FEA01314FF4801C4CEA113102D04042C3
:1007200061EB410113F0004F4FEA03334CEA1333FE
:1007300002D0524263EB430394EA050F00F0A78016
:10074000A4F10104D5F1200E0DDB02FA0EFC22FA11
:1007500005F2801841F1000103FA0EF2801843FA05
:1007600005F359410EE0A5F120050EF1200E012AF6
:1007700003FA0EFC28BF4CF0020C43FA05F3C01834
:1007800051EBE37101F0004507D54FF0000EDCF1AD
:10079000000C7EEB00006EEB0101B1F5801F1BD356
:1007A000B1F5001F0CD349085FEA30004FEA3C0C5A
:1007B00004F101044FEA445212F5800F80F09A8050
:1007C000BCF1004F08BF5FEA500C50F1000041EB54
:1007D000045141EA050130BD5FEA4C0C404141EB58
:1007E0000101013C28BFB1F5801FE9D291F0000F53
:1007F00004BF01460020B1FA81F308BF2033A3F102
:100800000B03B3F120020CDA0C3208DD02F1140CF8
:10081000C2F10C0201FA0CF021FA02F10CE002F133
:100820001402D8BFC2F1200C01FA02F120FA0CFC2C
:10083000DCBF41EA0C019040E41AA2BF01EB045175
:10084000294330BD6FEA04041F3C1CDA0C340EDC73
:1008500004F11404C4F1200220FA04F001FA02F3B6
:1008600040EA030021FA04F345EA030130BDC4F174
:100870000C04C4F1200220FA02F001FA04F340EA69
:100880000300294630BD21FA04F0294630BD94F01A
:10089000000F83F4801306BF81F480110134013D01
:1008A0004EE77FEA645C18BF7FEA655C29D094EA72
:1008B000050F08BF90EA020F05D054EA000C04BFF0
:1008C0001946104630BD91EA030F1EBF00210020DB
:1008D00030BD5FEA545C05D14000494128BF41F07A
:1008E000004130BD14F580043CBF01F5801130BDDE
:1008F00001F0004545F0FE4141F470014FF0000069
:1009000030BD7FEA645C1ABF194610467FEA655C19
:100910001CBF0B46024650EA013406BF52EA0335BB
:1009200091EA030F41F4002130BD00BF90F0000FA9
:1009300004BF0021704730B54FF4806404F13204E5
:100940004FF000054FF0000150E700BF90F0000F9E
:1009500004BF0021704730B54FF4806404F13204C5
:1009600010F0004548BF40424FF000013EE700BF95
:1009700042004FEAE2014FEA31014FEA02701FBF25
:1009800012F07F4393F07F4F81F06051704732F057
:100990007F4208BF704793F07F4F04BF41F40021AE
:1009A000704730B54FF4607401F0004521F000410C
:1009B0001CE700BF50EA010208BF704730B54FF096
:1009C00000050AE050EA010208BF704730B511F097
:1009D000004502D5404261EB41014FF4806404F1CF
:1009E00032045FEA915C3FF4D8AE4FF003025FEA55
:1009F000DC0C18BF03325FEADC0C18BF033202EBD9
:100A0000DC02C2F1200300FA03FC20FA02F001FA32
:100A100003FE40EA0E0021FA02F11444BDE600BFD5
:100A200070B54FF0FF0C4CF4E06C1CEA11541DBF84
:100A30001CEA135594EA0C0F95EA0C0F00F0DEF84F
:100A40002C4481EA030621EA4C5123EA4C5350EA34
:100A5000013518BF52EA033541F4801143F4801385
:100A600038D0A0FB02CE4FF00005E1FB02E506F016
:100A70000042E0FB03E54FF00006E1FB03569CF06B
:100A8000000F18BF4EF0010EA4F1FF04B6F5007F71
:100A900064F5407404D25FEA4E0E6D4146EB0606E3
:100AA00042EAC62141EA55514FEAC52040EA5E506C
:100AB0004FEACE2EB4F1FD0C88BFBCF5E06F1ED816
:100AC000BEF1004F08BF5FEA500E50F1000041EB4D
:100AD000045170BD06F0004646EA010140EA0200FA
:100AE00081EA0301B4EB5C04C2BFD4EB0C0541EA1C
:100AF000045170BD41F480114FF0000E013C00F331
:100B0000AB8014F1360FDEBF002001F0004170BD54
:100B1000C4F10004203C35DA0C341BDC04F114046D
:100B2000C4F1200500FA05F320FA04F001FA05F2F9
:100B300040EA020001F0004221F0004110EBD370C6
:100B400021FA04F642EB06015EEA430E08BF20EAF2
:100B5000D37070BDC4F10C04C4F1200500FA04F395
:100B600020FA05F001FA04F240EA020001F0004127
:100B700010EBD37041F100015EEA430E08BF20EA9A
:100B8000D37070BDC4F1200500FA05F24EEA020EE2
:100B900020FA04F301FA05F243EA020321FA04F011
:100BA00001F0004121FA04F220EA020000EBD370C8
:100BB0005EEA430E08BF20EAD37070BD94F0000FC8
:100BC0000FD101F00046400041EB010111F4801FFC
:100BD00008BF013CF7D041EA060195F0000F18BFAD
:100BE000704703F00046520043EB030313F4801FE9
:100BF00008BF013DF7D043EA0603704794EA0C0FA3
:100C00000CEA135518BF95EA0C0F0CD050EA4106B8
:100C100018BF52EA4306D1D181EA030101F0004135
:100C20004FF0000070BD50EA410606BF104619465D
:100C300052EA430619D094EA0C0F02D150EA013669
:100C400013D195EA0C0F05D152EA03361CBF1046AA
:100C500019460AD181EA030101F0004141F0FE4149
:100C600041F470014FF0000070BD41F0FE4141F4CD
:100C7000780170BD70B54FF0FF0C4CF4E06C1CEACD
:100C800011541DBF1CEA135594EA0C0F95EA0C0F82
:100C900000F0A7F8A4EB050481EA030E52EA03353D
:100CA0004FEA013100F088804FEA03334FF080555E
:100CB00045EA131343EA12634FEA022245EA11158B
:100CC00045EA10654FEA00260EF000419D4208BF3C
:100CD000964244F1FD0404F5407402D25B084FEAE9
:100CE0003202B61A65EB03055B084FEA32024FF495
:100CF00080104FF4002CB6EB020E75EB030E22BFF2
:100D0000B61A754640EA0C005B084FEA3202B6EBB1
:100D1000020E75EB030E22BFB61A754640EA5C0060
:100D20005B084FEA3202B6EB020E75EB030E22BFF0
:100D3000B61A754640EA9C005B084FEA3202B6EBF1
:100D4000020E75EB030E22BFB61A754640EADC00B0
:100D500055EA060E18D04FEA051545EA16754FEA12
:100D600006164FEAC30343EA52734FEAC2025FEA30
:100D70001C1CC0D111F4801F0BD141EA00014FF0BF
:100D800000004FF0004CB6E711F4801F04BF014390
:100D90000020B4F1FD0C88BFBCF5E06F3FF6AFAEAC
:100DA000B5EB030C04BFB6EB020C5FEA500C50F13C
:100DB000000041EB045170BD0EF0004E4EEA1131BF
:100DC00014EB5C04C2BFD4EB0C0541EA045170BDC6
:100DD00041F480114FF0000E013C90E645EA060E0A
:100DE0008DE60CEA135594EA0C0F08BF95EA0C0F38
:100DF0003FF43BAF94EA0C0F0AD150EA01347FF480
:100E000034AF95EA0C0F7FF425AF104619462CE756
:100E100095EA0C0F06D152EA03353FF4FDAE1046B9
:100E2000194622E750EA410618BF52EA43067FF40A
:100E3000C5AE50EA41047FF40DAF52EA43057FF49A
:100E4000EBAE12E74FF0FF3C06E000BF4FF0010CA5
:100E500002E000BF4FF0010C4DF804CD4FEA410C09
:100E60007FEA6C5C4FEA430C18BF7FEA6C5C1BD0D6
:100E700001B050EA410C0CBF52EA430C91EA030F57
:100E800002BF90EA020F0020704710F1000F91EAB4
:100E9000030F58BF994208BF90422CBFD8176FEA82
:100EA000E37040F0010070474FEA410C7FEA6C5C50
:100EB00002D150EA013C07D14FEA430C7FEA6C5C57
:100EC000D6D152EA033CD3D05DF8040B704700BF83
:100ED0008446104662468C461946634600E000BFD1
:100EE00001B5FFF7B7FF002848BF10F1000F01BDA3
:100EF0004DF808EDFFF7F4FF0CBF012000205DF86E
:100F000008FB00BF4DF808EDFFF7EAFF34BF0120F2
:100F100000205DF808FB00BF4DF808EDFFF7E0FF8B
:100F200094BF012000205DF808FB00BF4DF808EDDC
:100F3000FFF7CEFF94BF012000205DF808FB00BF43
:100F40004DF808EDFFF7C4FF34BF012000205DF825
:100F500008FB00BF4FEA410C7FEA6C5C02D150EA0B
:100F6000013C0AD14FEA430C7FEA6C5C02D152EAA1
:100F7000033C02D14FF0000070474FF00100704772
:100F80004FEA410212F5001215D211D56FF47873B1
:100F9000B3EB625212D94FEAC12343F0004343EA54
:100FA000505311F0004F23FA02F018BF404270472F
:100FB0004FF00000704750EA013005D111F00040B9
:100FC00008BF6FF0004070474FF00000704700BF4F
:100FD0004A0011D212F5001211D20DD56FF47873B8
:100FE000B3EB62520ED44FEAC12343F0004343EA0D
:100FF000505323FA02F070474FF00000704750EA58
:10100000013002D14FF0FF3070474FF000007047C1
:1010100053B94AB9002908BF00281CBF4FF0FF315F
:101020004FF0FF3001F0C0B8ADF1080C6DE904CE0F
:1010300000F006F8DDF804E0DDE9022304B07047B3
:101040002DE9F047089D04468C46002B40F0838034
:101050008A42174647D9B2FA82F242B1C2F1200061
:1010600024FA00F09140974040EA010C94404FEA86
:101070001748230CBCFBF8F61FFA87FE08FB16C1C5
:1010800043EA014306FB0EF1994209D9FB1806F128
:10109000FF3080F01981994240F21681023E3B44B4
:1010A0005B1AA4B2B3FBF8F008FB103344EA034424
:1010B00000FB0EFEA64509D93C1900F1FF3380F074
:1010C0000581A64540F2028102383C4440EA0640D0
:1010D000A4EB0E0400261DB1D4400023C5E9004353
:1010E0003146BDE8F08702B9FFDEB2FA82F2002A8B
:1010F00050D1CB1B4FEA174E1FFA87F80126B3FBDE
:10110000FEFC210C0EFB1C3341EA034108FB0CF3EF
:101110008B4207D979180CF1FF3002D28B4200F2D2
:10112000E9808446C91AA3B2B1FBFEF00EFB101190
:1011300043EA014408FB00F8A04507D93C1900F137
:10114000FF3302D2A04500F2D9801846A4EB080470
:1011500040EA0C40BFE78B4209D9002D00F0B18076
:101160000026C5E9000130463146BDE8F087B3FAF4
:1011700083F6002E4AD18B4202D3824200F2B8801D
:10118000841A61EB030101208C46002DA8D0C5E92B
:10119000004CA5E7C2F1200320FA03F6974001FABC
:1011A00002F04FEA174ED9403043030CB1FBFEF674
:1011B0001FFA87F80EFB161143EA014306FB08F1FC
:1011C000994204FA02F409D9FB1806F1FF3C80F0B9
:1011D0008D80994240F28A80023E3B445B1A81B284
:1011E000B3FBFEF00EFB103341EA034100FB08F3B2
:1011F0008B4207D9791800F1FF3C73D28B4271D929
:1012000002383944CB1A40EA064678E7C6F1200C8A
:1012100003FA06F422FA0CF31C4320FA0CF701FA45
:1012200006F34FEA144E21FA0CF11F433B0CB1FBBD
:10123000FEF91FFA84F80EFB191143EA014109FB7C
:1012400008FA8A4502FA06F200FA06F308D961188C
:1012500009F1FF3048D28A4546D9A9F10209214453
:10126000A1EB0A01BFB2B1FBFEF00EFB101147EA81
:10127000014700FB08F8B84507D9E71900F1FF312D
:101280002ED2B8452CD90238274440EA0940A7EBB2
:101290000807A0FB02894F45C64649461AD317D016
:1012A0005DB1B3EB0E0267EB010707FA0CFCF240ED
:1012B0004CEA0202F740C5E9002700263146BDE8A6
:1012C000F0872E4628460BE70646E9E61846FDE677
:1012D0004345E5D2B8EB020E69EB04010138DFE7C4
:1012E0000846D2E760468DE78146B9E7664675E76E
:1012F00030464AE7ACF1020C394413E702383C446B
:1013000024E700BF03685A004CBF43F0004323F0BA
:1013100000431844704700BF2DE9F84329B34F1E1E
:10132000044615463E464FF0000808EB060101EB67
:10133000D171491004EBC1094846FFF7E3FF0346AA
:10134000C80008308F42204409D0AB4209D8FFF7CB
:10135000D9FF0138A8420AD201F10108E5E7AB4202
:1013600005D9884501D04E1EDFE74FF000094846F9
:10137000BDE8F883012807D0022807D0044B0028D5
:101380000CBF18460020704702487047024870475B
:10139000391A00003D1A0000411A000030B5234BF5
:1013A00083B004468D1E3BB301A92846AFF30080ED
:1013B000E8B101992A46FFF7AFFF0146B8B1FFF740
:1013C000A1FF4B68A064012B2BD0002B01F104007E
:1013D00023DBFFF797FF0023C4E913030368002B07
:1013E00010DBFFF78FFF2061002003B030BD00232A
:1013F0000920236103B030BD0D490E48091AC910F8
:101400000191D7E7C3F30360FFF7B4FF0028206121
:1014100014BF0020092003B030BD0123C4E9130329
:10142000DCE7002323610520DFE700BF00000000A8
:10143000D82E0100082B01000368DA0710B5044616
:1014400006D49B0700F1480009D500F04BFC236847
:10145000590709D51A070ED5DB0613D510BD00F0C4
:1014600039FC23685907F5D404F1D00000F042FCA0
:1014700023681A07F0D404F5A87000F043FC236831
:10148000DB06EBD404F5E870BDE8104000F07EBC4C
:101490000346006800B11844704700BF0920704738
:1014A000704700BF70B504460E46316C2046FFF70A
:1014B00075FF054688B9336C63613246236921465E
:1014C000012098470828F0D0072806D12846316C1B
:1014D000FFF7E6FF301D00F0F1FB0DF0DFF800BF75
:1014E0002DE9F0470D1D064614460FCDADF5727D72
:1014F0000DF10C0CACE80F000FCDACE80F000FCDD8
:10150000ACE80F0095E80F0002ADF768D6F8188038
:101510008CE80F0000232B6021E02B6C73614FF4EB
:10152000F07229467AA800F041FE33697AAA314662
:1015300050469847889BCDE9005821466B64814608
:10154000334632460120B8470446E8B94FF4F072FA
:101550007AA9284600F02AFEB9F1080F1BD1296CA0
:101560003046FFF71BFF09345FFA84FA81460028F2
:10157000D3D0AB6B4AF01001CDE9005832466B6412
:1015800001203346B84708B14FF0090948460DF528
:10159000727DBDE8F087B9F1070FF5D12046296CBF
:1015A000FFF77EFF03A800F089FB00BF406C704787
:1015B000F0B5CB6B0B640E1D0F4605460FCEF9B090
:1015C00001AC0FC40FCE0FC40FCE0FC496E80F00AE
:1015D0004FF0FF3684E80F00009606E02B696A465C
:1015E000294698470828044608D110992846FFF74D
:1015F000D5FE0028F2D0092079B0F0BD6846FFF78B
:101600001BFF062CF7D139462846FFF74BFF00BFDA
:1016100030B4DD6BC160826119461D64002230BCAC
:101620005EE700BF70B5C66843690B64AEB9036975
:101630000A4604460D46014602209847072805D071
:1016400008280FD129462046FFF72CFF3046296C89
:10165000FFF726FF281D00F031FB0122FFF740FFB6
:101660000DF01CF80DF01AF8C2681AB1CA6B0A64C2
:10167000002235E79CE700BF704700BF8368014642
:101680000BB1012018477047012912D009D873B94E
:101690000F2A0CD800EB820218465368009A136098
:1016A00070470339012994BF0120022070470220AE
:1016B00070470846704700BF10B584B0002303ACE4
:1016C0000A4600941946FFF7DFFF039804B010BDE7
:1016D000012912D009D873B90F2A0CD800EB820067
:1016E000009A12684260184670470339012994BF76
:1016F000012002207047022070470846704700BF53
:1017000010B584B0002303AC039200940A46194636
:10171000FFF7DEFF04B010BDF0B5D36B1364151DE9
:101720008C4606460FCDADF50F7D17AC0FC40FCD1F
:101730000FC40FCD0FC495E80F004FF0FF3784E8BA
:101740000F006546169710E0FFF7DAFF294616A846
:10175000B047034616AA6946082083B9049B9847F8
:10176000052804460CD0092809D026996846FFF7B9
:1017700015FE03466A460C2116A8002BE4D0092466
:1017800016A8FFF759FE20460DF50F7DF0BD00BFEE
:101790002DE9F04FCC6C89B00D4654F8041B06942B
:1017A000174600F003081E46002B79D00B0CDAB266
:1017B00009048DF81D30022304EB820405918DF895
:1017C0001C302B6DB8F1020F08BFAC6B13F0010396
:1017D0000CD0384605A900F073FB18B9082009B0F1
:1017E000BDE8F08F092009B0BDE8F08FD4F800A063
:1017F000BAF1000FEDD0019300F008030293022E1E
:101800004AD0B4F800A0B4F802900434AA6C29F0CD
:10181000010B0F2138469344FFF74EFF834539D81B
:101820002AF001025A44824294BF002001204FEA6C
:10183000490303F002030AF0010A43EA0A03012BF9
:1018400049D0022B32D0002BCCD1B8F1000F02D0FE
:10185000002840F0CD800434D4F800A0BAF1000F85
:10186000CDD105A9384600F02BFB0028BAD1019B49
:10187000002BB3D00F213846FFF71EFF0E21024682
:101880003846FFF73DFF38466A4A0F21FFF738FF19
:101890000720A8E70020CAE7D4F804900834B5E789
:1018A000090203230591ADF81C308AE7236823F071
:1018B000004BB8F1000F45D128B1029A002A5CD044
:1018C000BBF1000F74D0002B00DA04340BF1010BD4
:1018D00004EB8B04C0E7B8F1000F19D1B0B1D4E923
:1018E0000023991C4FEAD2723FF47CAF05F15801F6
:1018F0000133049100F09080201DFFF7C9FD04AB77
:1019000001462846AFF3008000285BD10834A3E7E6
:101910000D213846D5F82090FFF7CEFE8145F5D150
:10192000AB6A9C42F2D12046FFF7ECFC0F21024645
:101930003846FFF7E5FE38462A460021FFF7E0FE6D
:10194000072050E70D213846D5F82090FFF7B4FE68
:10195000814501D02368B6E7AB6A9C42FAD10422E4
:101960000021C5E90B12A318C5F828B06B632368E2
:101970008B4259DB01230193A8E705F15803CDF809
:101980000C8004F1040AB04691461E460DE0049610
:10199000FFF77EFD04AB014600222846AFF300802E
:1019A00009F101090AF1040AE8B9D9455046EED116
:1019B00038460D21FFF780FE049B2862C5E90934F3
:1019C000062010E781460D213846FFF775FEB9F174
:1019D000020F286225D12B46049A43F82C2F6B6204
:1019E000AC620620FFE646462368DDF80C806AE715
:1019F0002046FFF787FC04340246AC6328461446B1
:101A0000AFF3008000283FF4EDAE384622460F21A8
:101A1000FFF776FE0720E6E638460D21FFF74CFE7D
:101A20002862049B6B62DBE70BF1010004EB800092
:101A30007AE700BF000000000023A9E60123A7E623
:101A40000223A5E62DE9F0430646C3B015461C4621
:101A5000042900F2B980DFE801F09A53B7290300A6
:101A6000002C40F0B180102A00F2AE800368D80646
:101A700000F1F38020AF384600F092F9B06B0023FC
:101A8000012404FA03F22A42014604D051F8042B3F
:101A900047F8232008460133042BF2D1B0633846BF
:101AA00000F074F9002043B0BDE8F083032C40F04F
:101AB0008B8094B204EB1243102B4FEA124500F2D4
:101AC000838003681F0700F1D08020AF384600F004
:101AD0003BF907EBC501B56B54B10B46E81A01EBB6
:101AE000C401E4001A5843F8042B8B42FAD1254470
:101AF0003846B56300F006F9002043B0BDE8F08336
:101B0000012C4FEA124895B25AD0052C5CD108EB53
:101B10000509B9F1200F57D8B8F10F0F77D9A946A9
:101B2000002D40F08880B36B6DB320AF4FF00009FB
:101B300007EBC807043F03EBC50553F8041B47F840
:101B4000041FAB42F9D1B9F1000F0FD06F464146E7
:101B5000102938BF102107EBC101843903EBC905F7
:101B600053F8040B41F8040FAB42F9D1012C00F0FB
:101B70008480B8F10F0FB56345D9B9F1000F02D0D9
:101B8000684600F0B7F8002043B0BDE8F083DCB948
:101B9000876B2346012094B206F1040C00FA03F28D
:101BA0002242394604D051F8042B4CF823200F462A
:101BB0000133102BF2D115F40050E4D1B76304E0E7
:101BC00008EB0503102B03D9022043B0BDE8F083D6
:101BD000B8F10F0FF8D83368DA0706D5304623F08E
:101BE000030340F8483B00F079F820AF384600F096
:101BF00075F8B36B002D99D11D460435B563384691
:101C000000F068F8BFE720A800F06CF8B5E7B9F17C
:101C1000100F40D9A9F110093368D90708D523F06E
:101C20000103304643F0020340F8483B00F05EF801
:101C3000B9F1000F32D033685A0720D4B8F10F0F32
:101C400025D96F463846C8F1100500F057F8002D29
:101C5000B36B7FF77CAF20AF6AE723F010033360EC
:101C600006F5E87000F09CF804E723F00803036031
:101C700000F5A87000F068F827E720AFBDE7304610
:101C800023F0040340F8D03B00F038F8D6E720A852
:101C900000F02CF8D5E74FF00009BDE7B8F10F0FC1
:101CA0003FF641AF20AF384600F020F8B36B002D6F
:101CB0007FF43CAF384600F015F864E700F13401DA
:101CC00091E838009C46A6464CF8045D90E8FF0F6A
:101CD000E54600BD90EC210B704700BF80EC210B66
:101CE000704700BF90EC200B704700BF80EC200BCA
:101CF000704700BFD0EC200B704700BFC0EC200B3A
:101D0000704700BFF0EC0201F0EC0211F0EC022190
:101D1000F0EC0231F0EC0241F0EC0251F0EC026127
:101D2000F0EC0271F0EC0281F0EC0291F0EC02A117
:101D3000F0EC02B1F0EC02C1F0EC02D1F0EC02E107
:101D4000F0EC02F1704700BFE0EC0201E0EC0211A0
:101D5000E0EC0221E0EC0231E0EC0241E0EC025167
:101D6000E0EC0261E0EC0271E0EC0281E0EC029157
:101D7000E0EC02A1E0EC02B1E0EC02C1E0EC02D147
:101D8000E0EC02E1E0EC02F1704700BFB0FC018141
:101D9000B0FC0191B0FC01A1B0FC01B1704700BFE3
:101DA000A0FC0181A0FC0191A0FC01A1A0FC01B15B
:101DB000704700BFEC4600B52DE900502DE9FF1F2C
:101DC0004FF000032DE90C0001A9FFF7F1FBDDF84E
:101DD00040E012B0704700BFEC4600B52DE900505E
:101DE0002DE9FF1F4FF000032DE90C0001A9FFF7BB
:101DF00019FCDDF840E012B0704700BFEC4600B5BA
:101E00002DE900502DE9FF1F4FF000032DE90C00D4
:101E100001A9FFF729FCDDF840E012B0704700BFD0
:101E2000EC4600B52DE900502DE9FF1F4FF00003EF
:101E30002DE90C0001ABFFF7EBFBDDF840E012B041
:101E4000704700BFEC4600B52DE900502DE9FF1F9B
:101E50004FF000032DE90C0001AAFFF75DFCDDF84F
:101E600040E012B0704700BF027A7AB9437AA3B15A
:101E70004268013B10B4437213680321141D0172C0
:101E80001A024460026010BC180E70470368013AE1
:101E900002721A020260180E7047B020704700BF2D
:101EA00000B585B003AA0023009219460C22FFF763
:101EB000EBFB039805B05DF804FB00BFF0E700BF43
:101EC0002DE9F043054685B00E464FF00008304638
:101ED000FFF7CAFFB028044600F0B280070620D5FD
:101EE00000F0F003802B4DD0902B36D0A02B60D08B
:101EF000B02B74D0C02B00F08B8000F0F803D02BF7
:101F00000BD100F00702013242F400220523012127
:101F10002846FFF797FD0028D9D0092005B0BDE875
:101F2000F0830DF10C09002319468700CDF80090CD
:101F30000D222846FFF7A8FBFFB2039BCDF80090C7
:101F4000043760064CBFDF1BFF18002319460D2223
:101F500028460397FFF7BCFBB9E700F00D030D2BF4
:101F6000DBD003AF002300F00F021946009728468C
:101F7000FFF78AFB0023009719460D222846FFF73A
:101F8000A7FBA4E73046FFF76FFF24022043B0F51C
:101F9000004FC2D004010023A2B219462846FFF721
:101FA00051FD0028B9D114F4004F18BF4FF00108BB
:101FB0008DE7C24302F007034FF47F621A41010725
:101FC00002F47F624FF0000348BF42F4804219469A
:101FD0002846FFF737FD00283FF479AF9DE7B12889
:101FE00033D0B22800F08B80B32839D000F0FC0346
:101FF000B42B92D000F007020132012342F40022F8
:1020000019462846FFF71EFD00283FF460AF84E71D
:10201000C62842D0C7284CD000F0F803C02B5BD0B4
:10202000C82860D0C9287FF478AF3046FFF71CFF7E
:10203000020300F00F0002F470220130024365E752
:10204000B8F1000F18D0002068E73046FFF70CFF0A
:10205000024600283FF461AF10F0F003D0D05CE7F7
:102060003046FFF701FF010300F00F0001F470217B
:10207000421C01230A43C3E703AC43460E224146F8
:1020800000942846FFF700FB0094284643460F22A1
:102090004146FFF71DFB404640E73046FFF7E4FEB0
:1020A000010300F00F0001F47021421C03230A43D6
:1020B000A6E73046FFF7D8FE024600283FF42DAFD2
:1020C00010F0F0037FF429AF04212846FFF7BAFC93
:1020D00000283FF4FCAE20E700F00F02013203239A
:1020E00042F420228CE73046FFF7BEFE00F0F002FB
:1020F00000F00F031032013343EA023206E70023F7
:102100000DF10C090D221946CDF800902846FFF775
:10211000BBFA3046FFF7A8FE02064FF002070CD5C7
:10212000039B00F07F00B840034430460393FFF761
:102130009BFE030607F10707F2D4039BCDF800903E
:1021400000F07F0403F50172BC40002314441946DB
:102150000D2228460394FFF7BBFAB8E610B5C26C0F
:1021600084B0536803248DF80C401B0202F108046C
:102170000846D279019301A902948DF80D20FFF74A
:102180009FFE04B010BD00BF08B5FFF797FE806C3E
:1021900008BD00BF08B5FFF791FEC06CC3790233DC
:1021A00000EB830008BD00BF704700BF844641EAD2
:1021B000000313F003036DD1403A41D351F8043BBF
:1021C00040F8043B51F8043B40F8043B51F8043B11
:1021D00040F8043B51F8043B40F8043B51F8043B01
:1021E00040F8043B51F8043B40F8043B51F8043BF1
:1021F00040F8043B51F8043B40F8043B51F8043BE1
:1022000040F8043B51F8043B40F8043B51F8043BD0
:1022100040F8043B51F8043B40F8043B51F8043BC0
:1022200040F8043B51F8043B40F8043B51F8043BB0
:1022300040F8043B51F8043B40F8043B403ABDD21F
:10224000303211D351F8043B40F8043B51F8043BC1
:1022500040F8043B51F8043B40F8043B51F8043B80
:1022600040F8043B103AEDD20C3205D351F8043B50
:1022700040F8043B043AF9D2043208D0D2071CBF1C
:1022800011F8013B00F8013B01D30B880380604645
:10229000704700BF082A13D38B078DD010F00303BB
:1022A0008AD0C3F10403D21ADB071CBF11F8013B2B
:1022B00000F8013B80D331F8023B20F8023B7BE77A
:1022C000043AD9D3013A11F8013B00F8013BF9D2A5
:1022D0000B7803704B7843708B788370604670473F
:1022E00001F0FF01102A2BDB10F0070F08D010F8C7
:1022F000013B013A8B422DD010F0070F42B3F6D1CB
:10230000F0B441EA012141EA014122F007047FF0E3
:1023100000070023F0E80256083C85EA010586EA3A
:10232000010685FA47F5A3FA87F586FA47F6A5FA76
:1023300087F68EB9EED1F0BC01F0FF0102F0070282
:1023400032B110F8013B013A83EA010313B1F8D12D
:102350000020704701387047002D06BF354603380E
:10236000073815F0010F07D1013015F4807F02BF47
:10237000013015F4C03F0130F0BC0138704700BF98
:1023800090F800F06DE9024520F007016FF0000CB5
:1023900010F0070491F820F040F049804FF000045D
:1023A0006FF00700D1E9002391F840F000F1080038
:1023B00082FA4CF2A4FA8CF283FA4CF3A2FA8CF370
:1023C0004BBBD1E9022382FA4CF200F10800A4FAD7
:1023D0008CF283FA4CF3A2FA8CF3E3B9D1E904232B
:1023E00082FA4CF200F10800A4FA8CF283FA4CF362
:1023F000A2FA8CF37BB9D1E9062301F1200182FA1C
:102400004CF200F10800A4FA8CF283FA4CF3A2FA21
:102410008CF3002BC6D0002A04BF04301A4612BA2F
:10242000B2FA82F2FDE8024500EBD2007047D1E932
:10243000002304F00305C4F100004FEAC50514F0C1
:10244000040F91F840F00CFA05F562EA05021CBF92
:1024500063EA050362464FF00004A9E780B582B045
:1024600000AF786009F04CFE034618460837BD46B9
:1024700080BD80B483B000AF78607B68023303F125
:10248000424303F580135B011C3301221A7000BF25
:102490000C37BD465DF8047B704780B483B000AF55
:1024A00078607B68023303F1424303F580135B01DC
:1024B0000C3300221A7000BF0C37BD465DF8047B58
:1024C000704780B483B000AF78607B68023303F15B
:1024D000424303F580135B010C3301221A7000BFE5
:1024E0000C37BD465DF8047B704780B483B000AF05
:1024F00078600B46FB707B68023303F1424303F5BF
:1025000080135B0110331A46FB78137000BF0C3741
:10251000BD465DF8047B704780B483B000AF78603F
:102520007B681B79DBB218460C37BD465DF8047B2F
:10253000704780B483B000AF78600B46FB707B6857
:10254000FA781A7100BF0C37BD465DF8047B7047FE
:1025500080B483B000AF78600B46FB707B68DB789B
:10256000DBB21A46FB7842FA03F303F00103002BB7
:1025700014BF01230023DBB218460C37BD465DF8BB
:10258000047B704780B483B000AF78607B6802330F
:1025900003F1424303F580135B0114331B78DBB274
:1025A000002B14BF01230023DBB218460C37BD46B5
:1025B0005DF8047B704780B483B000AF78600B4651
:1025C000FB707B68023303F1424303F580135B0128
:1025D0001833FA781A7000BF0C37BD465DF8047BDB
:1025E000704780B483B000AF78607B680222DA70F5
:1025F00000BF0C37BD465DF8047B704780B584B0E2
:1026000000AFF860B9601346FB71BB681F2B05D99A
:102610000B4B0C4AD9210C480CF048F8BB689B00C6
:10262000FA68134403F1424303F580135B0114334A
:102630001A46FB79136000BF1037BD4680BD00BF4E
:102640009C120100C4140100A812010080B584B0DE
:1026500000AFF860B9601346FB71BB681F2B05D94A
:102660000D4B0E4AFF210E480CF020F8FB68BA68AB
:1026700053F8223023F0807323F4E063FA791202D6
:1026800002F4E06243EA0201FB68BA6843F82210F0
:1026900000BF1037BD4680BD9C120100B014010080
:1026A000A812010080B584B000AF78607B681B6819
:1026B0000F4A52F82330FB607B681B68184600F015
:1026C000EFF97B681B68184609F090FDF8680AF07E
:1026D00041FCF868FFF7CDFE0121F868FFF76BFFBA
:1026E0000449786800F0FCF800BF1037BD4680BD93
:1026F000A4140100A086010080B584B000AF78600A
:102700007B681B68054A52F82330FB60F8680AF0C2
:1027100067FC002318461037BD4680BDA414010095
:1027200080B584B000AF78600023BB607B681B6815
:102730000E4A52F82330FB60F868FFF723FF034688
:10274000002B02D0F8680AF05BFC0023BB6004E0B9
:1027500000BF00BFBB680133BB60BB68C72BF7D9A4
:10276000002318461037BD4680BD00BFA4140100E9
:1027700080B586B000AF78600B46FB70104B3B61B4
:102780007B681B680F4A52F82330FB6000237B6193
:102790000CE0FB781946F868FFF7DAFE0346002BD9
:1027A00001D0002307E07B6901337B617A693B69D3
:1027B0009A42EED3012318461837BD4680BD00BFAC
:1027C000A0860100A414010080B584B000AF786039
:1027D0007B681B68104A52F82330FB60012178683F
:1027E000FFF7C6FF0346002B01D0022310E0F86874
:1027F000FFF7F7FE07217868FFF7BAFF0346002BC3
:1028000001D0022304E00021F868FFF7A1FE03468F
:1028100018461037BD4680BDA414010080B584B0B1
:1028200000AF78607B681B680A4A52F82330FB606F
:1028300001217868FFF79CFF0346002B01D001239C
:1028400003E0F868FFF7CDFE002318461037BD46B9
:1028500080BD00BFA414010080B584B000AF7860D3
:1028600039607B681B68094A52F82330FB603B687B
:10287000DBB21946F868FFF75CFE7868FFF7A4FF43
:10288000034618461037BD4680BD00BFA4140100A2
:1028900080B586B000AFF860B9607A60FB681B68ED
:1028A0000E4A52F823307B617B68002B03D0786995
:1028B000FFF707FE02E07869FFF7EFFD7869FFF7A1
:1028C0002BFE03461A46BB681A70F868FFF7A6FF8E
:1028D000034618461837BD4680BD00BFA41401004A
:1028E00080B584B000AF786039607B681B680E4AA1
:1028F00052F82330FB607B681B681846FFF7AEFD7B
:102900000346BB603B68094A82FB03129211DB1746
:10291000D31A1A460023B968F8680AF029FB00BFE9
:102920001037BD4680BD00BFA4140100D34D621016
:1029300090B589B000AFF860B9607A603B60F86824
:10294000FFF7DAFE0346002B05D0F868FFF7E8FE34
:102950006FF0010355E0BB6843F001031946F868C6
:10296000FFF77AFF0346002B05D0F868FFF7D8FE83
:102970004FF0FF3345E0FB681B68244A52F82330D0
:10298000BB610021B869FFF7B0FD0023FB6124E0C3
:10299000FB69002B02D107F1120303E0FB69013B45
:1029A0007A6813447B613B68013BFA699A420CBF29
:1029B00001230023DBB2FB74FB7C1A467969F868BB
:1029C000FFF766FF0346002B04D0F868FFF7A8FE68
:1029D000FB6916E0FB690133FB61FA693B689A42C7
:1029E000D6DB3B6B002B02D0F868FFF799FEFB6942
:1029F000013B7A68D418B869FFF78EFD034623704F
:102A00003B6818462437BD4690BD00BFA4140100A2
:102A100080B586B000AFF860B9607A603B60F86856
:102A2000FFF76AFE0346002B05D0F868FFF778FE33
:102A30006FF0010330E0BB6803F0FE031946F8684D
:102A4000FFF70AFF0346002B05D0F868FFF768FE82
:102A50004FF0FF3320E000237B6112E07B697A684E
:102A600013441B781946F868FFF7F6FE0346002B5F
:102A700004D0F868FFF754FE7B690DE07B690133F1
:102A80007B617A693B689A42E8DB3B6A002B02D0A3
:102A9000F868FFF745FE3B6818461837BD4680BD0D
:102AA00080B582B000AF78607B68002B03D07B6874
:102AB000012B15D029E0052218211648FFF7C6FD85
:102AC000012218211348FFF799FD05221921114809
:102AD000FFF7BCFD012219210E48FFF78FFD14E01E
:102AE00002220A210C48FFF7B1FD01220A210A48FF
:102AF000FFF784FD02220B210748FFF7A7FD012203
:102B00000B210548FFF77AFD00BF00BF0837BD461F
:102B100080BD00BF00D0044000B0044080B584B048
:102B200000AF78600B46FB707B68012B11D80C4915
:102B30007B687A6841F823207B689B00084A13442D
:102B40001846FFF7AFFD7B689B00054A1344FB6006
:102B500001E00023FB60FB6818461037BD4680BDCE
:102B60009010002080B584B000AF786039607B6839
:102B7000002B07D03B6819467868FFF7B1FE0023A9
:102B8000FB7301E00823FB73FB7B18461037BD463F
:102B900080BD80B588B002AFF8607A603B600B46BC
:102BA0007B8100237B6197F82030002B0CBF012331
:102BB0000023DBB23B61FB68002B19D07B895900F5
:102BC0003A683B69009313467A68F868FFF7B0FEED
:102BD00003467B617B6913F1020F01D1012308E0F9
:102BE0007B69B3F1FF3F01D1042302E0002300E041
:102BF000082318461837BD4680BD80B588B002AF9F
:102C0000F8607A603B600B467B8100237B6197F81C
:102C10002030002B0CBF01230023DBB23B61FB689B
:102C2000002B19D07B8959003A683B690093134601
:102C30007A68F868FFF7ECFE03467B617B6913F165
:102C4000020F01D1012308E07B69B3F1FF3F01D1FD
:102C5000042302E0002300E0082318461837BD468D
:102C600080BD80B483B000AF786000BF0C37BD4634
:102C70005DF8047B7047000080B590B000AF7860CD
:102C80000B46FB70FB78002B27D107F124030022B1
:102C90001A605A609A60DA601A615A612D4A7B683C
:102CA00052F833307B62012387F82830012387F8FC
:102CB00029304FF0FF333B6307F1240318460AF035
:102CC0006FF8244A7B68DB00134401221A717B6889
:102CD000DB00204A1344FB6336E0FB78012B31D143
:102CE00007F10C0300221A605A609A60DA601A61D8
:102CF0005A61184A7B6852F83330FB6001233B75F8
:102D00004FF0FF33BB6107F10C0318460AF0BAF825
:102D1000104A7B68DB00134402221A717B68292B5E
:102D20000AD97B682C2B07D80A4A7B6852F83330C3
:102D3000012118460AF0E2F87B68DB00054A1344DB
:102D4000FB6301E00023FB63FB6B18464037BD4685
:102D500080BD00BF0000002080B586B000AF786065
:102D60007B683B613B69002B0BD03B691B79012BD6
:102D700007D13B691B6818460AF0CEF80346FB757D
:102D800001E00023FB753B691B681B0ADBB2FB609B
:102D90003B691B68DBB2BB60FB68022B02D1BB68DE
:102DA000062B05D0FB68002B09D1BB68042B06D18C
:102DB000FB7D002B0CBF01230023DBB2FB75FB7DE9
:102DC00018461837BD4680BD80B586B000AF786024
:102DD0000B46FB707B687B617B69002B2FD07B6986
:102DE0001B79022B2BD17B691B681B0ADBB23B6171
:102DF0007B691B68DBB2FB603B69012B05D1FB687B
:102E0000162B08D0FB68152B05D03B69042B0FD17E
:102E1000FB681A2B0CD17B691A68FB78012B14BF55
:102E200001230023DBB2194610460AF067F806E0DA
:102E30007B691B68FA78114618460AF05FF800BFF4
:102E40001837BD4680BD80B485B000AF78607B6820
:102E5000FB60FB68002B0ED0FB681B79022B03D1B3
:102E6000FB6800221A7106E0FB681B79012B02D176
:102E7000FB6800221A7100BF1437BD465DF8047B61
:102E80007047000080B584B000AFF860B9601346A9
:102E9000FB71BB681F2B05D90D4B0E4AFF210E4855
:102EA0000BF004FCFB68BA6853F8223023F08073FF
:102EB00023F4E063FA79120202F4E06243EA0201C9
:102EC000FB68BA6843F8221000BF1037BD4680BDCA
:102ED000E0120100E0140100EC12010080B483B0A4
:102EE00000AF78600B46FB707B681B6823F018020C
:102EF000FB78DB0003F018031A437B681A6000BFFD
:102F00000C37BD465DF8047B7047000080B58EB07D
:102F100000AF786187ED020B87ED001B524A7B6999
:102F20005B01134411331B78002B40F08780002392
:102F300087F82830002387F82930002387F82A30C3
:102F40008023FB62484A7B695B0113441868464A48
:102F50007B695B01134404331968434A7B695B0155
:102F6000134410331B781A46FFF78CFF3E4A7B69E7
:102F70005B01134408331B6807F128021146184609
:102F800009F036FD384A7B695B01134408331B683E
:102F9000DBB200220121184609F0B0FD324A7B69FC
:102FA0005B011344113304221A702F4A7B695B01C1
:102FB000134403F11801D7E90223C1E900230223D6
:102FC0003B7600237B76284A7B695B0113441833E8
:102FD000D3E9002310461946FDF7FAFF0346FB61CB
:102FE000D7E90001FDF7F4FF03463B620023BB84F1
:102FF0001D4A7B695B01134408331B681B4A52F866
:1030000023303B630021386BFFF768FF164A7B696A
:103010005B01134408331868134A7B695B0113444E
:103020000C331B68DAB207F11803194609F0C4FD26
:103030007B695B010C4A13447B630FE00A4A7B699E
:103040005B01134411331B78042B05D17B695B01B1
:10305000054A13447B6301E000237B637B6B1846C6
:103060003837BD4680BD00BF78010020DC1E01005E
:1030700080B483B000AF786000BF0C37BD465DF808
:10308000047B704780B58AB000AFF86087ED000B15
:10309000FB687B627B6A002B2CD07B6A5B7C042BF9
:1030A00028D102233B7400237B747B6AD3E9062377
:1030B00010461946FDF78CFF03467B61D7E90001F6
:1030C000FDF786FF0346BB610023BB837B6A9B68D9
:1030D0000A4A52F823303B620021386AFFF7FEFEAD
:1030E0007B6A98687B6ADB68DAB207F110031946DD
:1030F00009F062FD00BF2837BD4680BDDC1E01001F
:1031000080B485B000AF78607B68FB60FB68002B03
:1031100006D0FB685B7C042B02D1FB6800225A744A
:1031200000BF1437BD465DF8047B704780B483B0A0
:1031300000AF786000BF0C37BD465DF8047B704778
:1031400080B584B000AFF860B9607A60BB680F2BBF
:1031500006D90A4B0A4A40F2E2210A480BF0A6FAC5
:10316000FA68BB685B01134403F5805310337A6837
:103170001A6000BF1037BD4680BD00BF2413010098
:10318000181501005013010080B584B000AFF8603D
:10319000B9601346FB71BB680F2B06D90D4B0E4A65
:1031A0004FF460710D480BF081FABB685B0103F5C9
:1031B00080531833FA681344043303F1424303F590
:1031C00080135B010433FA7992B21A8000BF103782
:1031D000BD4680BD241301003415010050130100C9
:1031E00090B587B000AFF8607A603B600B46FB7229
:1031F00000237B61FB681B68032B00F0E481032B39
:1032000005D8012B00F09880022B00F04781954BE8
:1032100000221A60934B1B68934A52F82330002B0C
:1032200041D1904B1B68914ADB00134400229A71F4
:103230008C4B1B688D4ADB00134400221A71894BAA
:103240001B688A4ADB00134400225A71854B1B68B5
:10325000864A4FF4E13142F83310824B1B6818461E
:1032600006F0DEFB7F4B1B689B01814A13448149BA
:10327000184609F0C9FA7B4B18687A4B1A6813464E
:103280001B019B1A9B007C4A9918764B1B68DB003C
:10329000764A13441A460AF0B7FB724B1B68724A0F
:1032A000012142F823107B68B3F1FF3F20D06D4B22
:1032B0001A68724913469B0013449B000B44232257
:1032C0001A60684B1A686D4913469B0013449B00B3
:1032D0000B4408336A4A1A60624B1A6867491346FE
:1032E0009B0013449B000B440C33664A1A6015E0A4
:1032F0005C4B1A68614913469B0013449B000B44C6
:10330000043331221A60574B1A685C4913469B00FC
:1033100013449B000B4410335B4A1A60514B1B68EB
:10332000504A1268594941F823204E4B1B689B00B4
:10333000564A13447B61DBE14A4B01221A60494B38
:103340001B68494A52F82330002B41D1454B1B687A
:10335000464ADB00134400229A71424B1B68434AE1
:10336000DB00134400221A713E4B1B683F4ADB000E
:10337000134400225A713B4B1B683C4A4FF4E13125
:1033800042F83310374B1B68184606F049FB354BA3
:103390001B689B01364A13443649184609F034FA33
:1033A000304B18682F4B1A6813461B019B1A9B0061
:1033B000314A99182B4B1B68DB002C4A13441A46E0
:1033C0000AF022FB274B1B68274A012142F82310F1
:1033D0007B68B3F1FF3F20D0224B1A682749134680
:1033E0009B0013449B000B4400221A601D4B1A687B
:1033F000224913469B0013449B000B440833244A84
:103400001A60184B1A681D4913469B0013449B0011
:103410000B440C331F4A1A6015E0124B1A68174907
:1034200013469B0013449B000B44043300221A6094
:103430000C4B1A68114913469B0013449B000B4424
:103440001033154A1A60074B1B68064A12680F4969
:1034500041F82320034B1B689B000C4A13447B61FB
:1034600046E100BFDC140020E0140020FC13002023
:10347000141100207806002094120020341400203B
:1034800098100020BC100020E0100020C414002080
:10349000E0100020E010002014110020AD4B0222AB
:1034A0001A60AC4B1B68AC4A52F82330002B41D158
:1034B000A84B1B68A94ADB00134400229A71A54B54
:1034C0001B68A64ADB00134400221A71A14B1B683B
:1034D000A24ADB00134400225A719E4B1B689F4A8C
:1034E0004FF4E13142F833109A4B1B68184606F04E
:1034F00097FA984B1B689B01994A134499491846BF
:1035000009F082F9934B1868924B1A6813461B0115
:103510009B1A9B00944A99188E4B1B68DB008F4ABC
:1035200013441A460AF070FA8A4B1B688A4A012132
:1035300042F823107B68B3F1FF3F20D0854B1A6817
:103540008A4913469B0013449B000B4400221A60D7
:10355000804B1A68854913469B0013449B000B441B
:103560000833834A1A607B4B1A68804913469B00D4
:1035700013449B000B440C337E4A1A6015E0754BD4
:103580001A687A4913469B0013449B000B4404338A
:1035900000221A606F4B1A68744913469B0013444B
:1035A0009B000B441033744A1A606A4B1B68694ACB
:1035B0001268724941F82320664B1B689B006F4AD2
:1035C00013447B6194E0634B03221A60614B1B68D8
:1035D000614A52F82330002B41D15E4B1B685F4A91
:1035E000DB00134400229A715A4B1B685B4ADB00D4
:1035F000134400221A71574B1B68584ADB001344CE
:1036000000225A71534B1B68544A4FF4E13142F87F
:103610003310504B1B68184606F002FA4D4B1B68DE
:103620009B014F4A13444F49184609F0EDF8494BA6
:103630001868484B1A6813461B019B1A9B004A4A9C
:103640009918444B1B68DB00444A13441A460AF09D
:10365000DBF9404B1B68404A012142F823107B688C
:10366000B3F1FF3F20D03B4B1A68404913469B0003
:1036700013449B000B4400221A60364B1A683B49E6
:1036800013469B0013449B000B4408333C4A1A60CA
:10369000304B1A68354913469B0013449B000B447A
:1036A0000C33384A1A6015E02A4B1A682F49134622
:1036B0009B0013449B000B44043300221A60254BEB
:1036C0001A682A4913469B0013449B000B4410338D
:1036D0002D4A1A601F4B1B681E4A1268274941F881
:1036E00023201C4B1B689B00244A13447B6100BFB2
:1036F0007B68B3F1FF3F27D0164B1A6813461B01B6
:103700009B1A9B002833184A13440433114A126849
:103710001E49184609F0BAF80E4B18680D4B1A6886
:10372000124913469B0013449B000B44083319684D
:10373000084B1A680D4C13469B0013449B0023440E
:103740001B681A4600F0E0F87B6918461C37BD4636
:1037500090BD00BFDC140020E0140020FC1300200A
:103760001411002078060020941200203414002048
:10377000E0100020E010002014110020C4140020EC
:10378000E0100020E010002014110020B5390000E6
:1037900080B483B000AF78603960002318460C37DE
:1037A000BD465DF8047B704780B483B000AF78609D
:1037B000084611461A460346FB700B46BB7013467B
:1037C0007B70002318460C37BD465DF8047B7047BC
:1037D00080B586B000AFF860B9607A60FB683B6185
:1037E0003B69002B33D03B691B681F4AD35C012B1C
:1037F0002DD13B691B681D4A52F82330012B0FD194
:103800003B691A681A4913469B0013449B000B44FA
:1038100008331B687A681946B868FEF7C7FC0EE0E3
:103820003B691A68124913469B0013449B000B44E2
:103830000C331B687A681946B868FEF7B7FC3B6919
:103840001B68094A0021D1540023FB7506E07A6801
:103850000021B8680BF06CFA2023FB75FB7D18463D
:103860001837BD4680BD00BF2C140020AC140020CA
:103870003414002080B586B000AFF860B9607A607B
:10388000FB683B613B69002B2AD03B691B68002128
:1038900018460AF00DFA0346082B21D03B691A6836
:1038A000134913469B0013449B000B4410331B68C1
:1038B0007A68B9681846FEF779FC3B6918683B6975
:1038C0001A680B4913469B0013449B000B441033AA
:1038D0001B687A6819460AF0C7F90346FB7501E0D0
:1038E0002023FB75FB7D18461837BD4680BD00BF01
:1038F0003414002080B483B000AF786000BF0C3770
:10390000BD465DF8047B704780B588B000AFF860B5
:10391000B9607A60FB68052B06D9214B214A40F239
:10392000891121480AF0C2FE204AFB6852F8233070
:10393000FB61FB6993F82C301B09DBB21A461C4B68
:1039400053F82230BB61FB6993F82C3003F00F036E
:103950007B61FB695B78DBB2002B01D009231AE0A5
:10396000FB6901225A70BB681A467969B869FFF78A
:10397000E7FB7A687969B86908F084FE0122796901
:10398000B869FFF701FC7B69DBB201221946B8690F
:1039900008F063FD002318462037BD4680BD00BFF8
:1039A00088130100F4140100A8130100E0A4002012
:1039B0009C1C010080B582B000AF78600B46FB70A4
:1039C0007B68184600F004F800BF0837BD4680BD8C
:1039D00080B586B000AF78607B68052B06D93C4B7C
:1039E0003C4A40F2AD113C480AF060FE3B4A7B681D
:1039F00052F823307B617B6993F82C301B09DBB2D2
:103A00001A46374B53F822303B617B6993F82C30D0
:103A100003F00F03FB600022F9683869FFF7B4FB7D
:103A2000FB68DBB200221946386908F016FD7B6995
:103A3000DB78DBB2002B04D07B691033184608F02A
:103A400055F97B6900225A70264A7B68134401228B
:103A50001A70254A7B6852F82330002B1AD123496B
:103A60007A6813469B0013449B000B440C3319687F
:103A70001E487A6813469B0013449B0003441B684E
:103A80001A467868FFF740FF174A7B68012142F821
:103A9000231019E015497A6813469B0013449B00D4
:103AA0000B440833196811487A6813469B00134485
:103AB0009B0003441B681A467868FFF725FF0A4AF3
:103AC0007B68002142F8231000BF1837BD4680BD37
:103AD000881301004C150100A8130100E0A4002088
:103AE0009C1C01002C140020AC1400203414002075
:103AF00080B586B000AF786026497A6813465B00CF
:103B000013449B000B4409331B78002B27D107F18A
:103B10000803184608F0BAFB0323FB721D497A68B4
:103B200013465B0013449B000B441B6807F108021B
:103B30001146184608F0BCFB16497A6813465B002C
:103B400013449B000B44093303221A707A6813460E
:103B50005B0013449B000F4A13447B6115E00D4941
:103B60007A6813465B0013449B000B4409331B78AF
:103B7000032B08D17A6813465B0013449B00054A67
:103B800013447B6101E000237B617B691846183791
:103B9000BD4680BD3804002080B485B000AFF86019
:103BA0000B467A60FB7200BF1437BD465DF8047B9C
:103BB000704700000000000080B58AB000AFF860D8
:103BC000B9601346FB71FB68FB61FB69002B3AD0BF
:103BD000FB691B7A3B750023BB7500237B75FB6972
:103BE0001B680121184608F0ABFBFB691868FB69EC
:103BF0005B6807F11402194608F0C2FBFB691A68FA
:103C0000FB695B681946104608F0D6FBFB691A6829
:103C1000FB695B681946104608F0F2FB03467B839C
:103C20007B8B07EE903AF8EE677A17EE900AFCF776
:103C30009FFE0DA3D3E90023FCF7F2FE02460B46DC
:103C4000C7E9082305E04FF000024FF00003C7E981
:103C50000823B968D7E90823C1E9002300BF283742
:103C6000BD4680BDAFF30080100010001000F03E94
:103C700080B483B000AF786000BF0C37BD465DF8FC
:103C8000047B704780B483B000AF786000BF0C370E
:103C9000BD465DF8047B704780B483B000AF7860A8
:103CA00000BF0C37BD465DF8047B704780B588B017
:103CB00000AF78617B691B68FB61FB690133BB6105
:103CC0000FE0FB69DB000E4A1A443B4611461846DA
:103CD00006F0DEFA0B4B1B68002B08D1B86904F024
:103CE000BBF9094B1B78DBB2002BEAD100E000BF27
:103CF000002006F019FA002318462037BD4680BD83
:103D00000C150020301500207A06002080B586B002
:103D100000AF78611B4B1B681B68002B0CBF012395
:103D20000023DBB21A46184B1A701AE03B461749BB
:103D3000184606F0ADFA134B1B685B79002B02D1D5
:103D4000134806F092FA002004F086F90D4B1B6828
:103D50001B68002B14BF01230023DBB21A460D4B56
:103D60001A70094B1B78DBB2002BDFD1786900F0A9
:103D700013F8002006F0D8F9002318461837BD467E
:103D800080BD00BF701501007A06002004150020D8
:103D90000C150020F814002080B586B002AF7860C2
:103DA0001E4B01221A600023FB6010E0FB68DB0061
:103DB0001B4A1344184606F058FAFB68DB00184A01
:103DC0001344184606F07EFAFB680133FB60FB687B
:103DD000002BEBDD0023FB6010E01249FA6813466C
:103DE0009B0013449B000B440F4A01921A690092F6
:103DF0000FCB06F0AAF9FB680133FB60FB68002BD0
:103E0000EBDD0A4B00221A7004F09AFC084806F019
:103E10002CFA002318461037BD4680BD301500200F
:103E20000C150020341500202C1500207A060020E7
:103E3000FC14002080B586B000AF786139610E4B6C
:103E400029221A6005F0BCFB05F084FD0B4B1B68B2
:103E500000221A6004F018F901209FED090A06F00B
:103E600077F83B460749184606F012FA0023184631
:103E70001837BD4680BD00BF4815002070150100F1
:103E80006F12833AFC14002080B400AF084B5A79BB
:103E90000132D2B25A71064B5B79092B02D9044B1D
:103EA00000225A7100BFBD465DF8047B704700BF19
:103EB000306400200000000080B58AB000AFF860D8
:103EC000B9607A60884B03F51C53063301221A70DF
:103ED000854B03F51C5300221A70BB6801221A702F
:103EE000814B03F51C53033301221A70FB68012236
:103EF0001A707B681B78002B5FD17B4B03F51B533B
:103F000035331B781846FCF711FD02460B4674A1A9
:103F1000D1E90001FCF7AEFE02460B4643EC172B3D
:103F2000B0EE470AF0EE670A06F0D6F9B0EE407A36
:103F3000F0EE607A87ED047B4FF000026B4BD7E91F
:103F40000401FCF7DFFF0346002B06D0D7E904018C
:103F5000FDF73EF80346FB7701E0FF23FB77FA7F8E
:103F6000614B03F51B5338331B78D31A3B62FB7F3D
:103F70003A6A9A4201D900233B623A6A5A4B03F5E6
:103F80001A533C331B88D31A7B627B6A002B01DAFD
:103F900000237B62564B03F51E533C331B681A46C5
:103FA00013469B0013445B001A467B6A9A422CBF5F
:103FB00001230023DBB2BB7701E00023BB77BB7F8B
:103FC000002B26D04A4B03F51F53093308221A70E1
:103FD000BB6800221A70FB6801221A70424B03F57D
:103FE0001C5301221A70404B03F51C53033300226B
:103FF0001A703D4B03F51A531033D3ED007AB3EE2C
:10400000047A67EE877A384B03F51A53C3ED007ACA
:1040100062E07B681B78002B27D0354B03F51F53DC
:10402000093304221A70324B03F51E533C3300222D
:104030001A602D4B03F51C53063300221A702A4BCD
:1040400003F51A531033D3ED007AB3EE047A67EE1A
:10405000877A254B03F51A53C3ED007ABB6800221B
:104060001A70FB6801221A7036E01F4B03F51B53D0
:1040700034331B78032B2FD01D4B03F51F5309330B
:1040800007221A70184B03F51C53043300221A70D0
:10409000154B03F51C53053300221A70124B03F520
:1040A0001C53023300221A700F4B03F51C530633C6
:1040B00000221A70BB6800221A700B4B03F51C53C8
:1040C000013300221A70FB6800221A70064B03F5B8
:1040D0001C53033300221A7000BF2837BD4680BD31
:1040E00000000000004CED40501500200000704022
:1040F000603C00200000000080B58AB000AFF8608E
:10410000B9607A60884B03F51C53063301221A709C
:10411000854B03F51C5300221A70BB6801221A70EC
:10412000814B03F51C53033301221A70FB680122F3
:104130001A707B681B78002B5FD17B4B03F51B53F8
:1041400032331B781846FCF7F1FB02460B4674A18C
:10415000D1E90001FCF78EFD02460B4643EC172B1C
:10416000B0EE470AF0EE670A06F0B6F8B0EE407A15
:10417000F0EE607A87ED047B4FF000026B4BD7E9DD
:104180000401FCF7BFFE0346002B06D0D7E904016B
:10419000FCF71EFF0346FB7701E0FF23FB77FA7F66
:1041A000614B03F51B5338331B78D31A3B62FB7FFB
:1041B0003A6A9A4201D900233B623A6A5A4B03F5A4
:1041C0001A533C331B88D31A7B627B6A002B01DABB
:1041D00000237B62564B03F51E533C331B681A4683
:1041E00013469B0013445B001A467B6A9A422CBF1D
:1041F00001230023DBB2BB7701E00023BB77BB7F49
:10420000002B26D04A4B03F51F53093309221A709D
:10421000BB6800221A70FB6801221A70424B03F53A
:104220001C5301221A70404B03F51C530333002228
:104230001A703D4B03F51A531033D3ED007AB3EEE9
:10424000047A67EE877A384B03F51A53C3ED007A88
:1042500062E07B681B78002B27D0354B03F51F539A
:10426000093303221A70324B03F51E533C330022EC
:104270001A602D4B03F51C53063300221A702A4B8B
:1042800003F51A531033D3ED007AB3EE047A67EED8
:10429000877A254B03F51A53C3ED007ABB680022D9
:1042A0001A70FB6801221A7036E01F4B03F51B538E
:1042B00034331B78072B2FD01D4B03F51F530933C5
:1042C00007221A70184B03F51C53043300221A708E
:1042D000154B03F51C53053300221A70124B03F5DE
:1042E0001C53023300221A700F4B03F51C53063384
:1042F00000221A70BB6800221A700B4B03F51C5386
:10430000013300221A70FB6800221A70064B03F575
:104310001C53033300221A7000BF2837BD4680BDEE
:1043200000000000004CED405015002000007040DF
:10433000603C002080B483B000AF78603960334BBC
:1043400003F51C53063300221A70304B03F51C533F
:1043500000221A702D4B03F51C53033301221A70EF
:104360003B6800221A707B6801221A70284B03F503
:104370001E533C331B681A4613469B0013445B00D4
:104380001A46224B03F51A533C331B889A4236D304
:104390001F4B03F51F53093301221A701C4B03F501
:1043A0001E533C3300221A60184B03F51C5306338E
:1043B00001221A703B6801221A707B6801221A7070
:1043C000124B03F51A531033D3ED007AB3EE047A8F
:1043D00067EE877A0D4B03F51A53C3ED007A0B4B4A
:1043E00003F51A531833D3ED007AB3EE047A67EE6F
:1043F000877A064B03F51A530833C3ED007A00BFE2
:104400000C37BD465DF8047B704700BF5015002097
:10441000603C00200000000080B586B000AF7860EE
:1044200039605F4B03F51C5300221A703B68012270
:104430001A705B4B03F51C53033301221A707B681F
:1044400001221A70564B03F51B5335331B7818465F
:10445000FCF76CFA02460B464FA1D1E90001FCF7CC
:1044600009FC02460B4643EC172BB0EE470AF0EE70
:10447000670A05F031FFB0EE407AF0EE607A87ED22
:10448000027B4FF00002474BD7E90201FCF73AFDEF
:104490000346002B06D0D7E90201FCF799FD03463D
:1044A000FB7401E0FF23FB74FA7C3D4B03F51B53C7
:1044B00038331B78D31A7B61FB7C7A699A4201D925
:1044C00000237B61384B03F51E533C331B681A46AF
:1044D00013469B0013445B001A467B6993421DD828
:1044E000314B03F51F5309330A221A702E4B03F583
:1044F0001E533C3300221A603B6800221A707B680E
:1045000001221A70264B03F51C5301221A70244B0A
:1045100003F51C53033300221A7036E0204B03F5D9
:104520001B5334331B78012B2FD01F4B03F51F5324
:10453000093307221A701A4B03F51C530433002267
:104540001A70174B03F51C53053300221A70144BD5
:1045500003F51C53023300221A70114B03F51C5350
:10456000063300221A703B6800221A700C4B03F5C8
:104570001C53013300221A707B6800221A70084B0A
:1045800003F51C53033300221A7000BF1837BD46D1
:1045900080BD00BFAFF3008000000000004CED4084
:1045A0005015002000007040603C0020000000001A
:1045B00080B586B000AF786039605F4B03F51C535F
:1045C00000221A703B6801221A705B4B03F51C53E2
:1045D000033301221A707B6801221A70564B03F5CF
:1045E0001B5332331B781846FCF7A0F902460B46E2
:1045F0004FA1D1E90001FCF73DFB02460B4643EC1D
:10460000172BB0EE470AF0EE670A05F065FEB0EE34
:10461000407AF0EE607A87ED027B4FF00002474B64
:10462000D7E90201FCF76EFC0346002B06D0D7E960
:104630000201FCF7CDFC0346FB7401E0FF23FB7491
:10464000FA7C3D4B03F51B5338331B78D31A7B613F
:10465000FB7C7A699A4201D900237B61384B03F5D0
:104660001E533C331B681A4613469B0013445B00E1
:104670001A467B6993421DD8314B03F51F5309330A
:104680000B221A702E4B03F51E533C3300221A6086
:104690003B6800221A707B6801221A70264B03F5D2
:1046A0001C5301221A70244B03F51C5303330022C0
:1046B0001A7036E0204B03F51B5334331B78052B5F
:1046C0002FD01F4B03F51F53093307221A701A4BC3
:1046D00003F51C53043300221A70174B03F51C53C7
:1046E000053300221A70144B03F51C5302330022C9
:1046F0001A70114B03F51C53063300221A703B68E5
:1047000000221A700C4B03F51C53013300221A705F
:104710007B6800221A70084B03F51C5303330022F8
:104720001A7000BF1837BD4680BD00BFAFF30080D0
:1047300000000000004CED405015002000007040CB
:10474000603C002080B483B000AF78603960D24B09
:1047500003F51C53043300221A70CF4B03F51C538E
:10476000053300221A70CC4B03F51C530233002290
:104770001A70C94B03F51C53063300221A703B68AC
:1047800000221A70C44B03F51C53013300221A7027
:10479000C14B03F51C5300221A707B6800221A706B
:1047A000BD4B03F51C53033300221A70BA4B03F5BB
:1047B0001B5334331B78013B072B00F2AF8101A25E
:1047C00052F823F02D490000E5470000B1480000F1
:1047D000354800007D490000CD4900001D4A000019
:1047E000A14A0000AD4B03F51F53093310221A7084
:1047F000AA4B03F51E533C3300221A603B6801228A
:104800001A70A54B03F51C53043301221A707B6800
:1048100001221A70A04B03F51A530C33D3ED007A22
:10482000B3EE047A67EE877A9B4B03F51A53C3ED18
:10483000007A73E1994B03F51F53093312221A7062
:10484000964B03F51E533C3300221A60924B03F53E
:104850001C53063301221A703B6801221A708E4BDA
:1048600003F51C53043301221A707B6801221A706D
:10487000894B03F51A530C33D3ED007AB3EE047A67
:1048800067EE877A844B03F51A53C3ED007A824BA7
:1048900003F51A531433D3ED007AB3EE047A67EEBE
:1048A000877A7D4B03F51A530433C3ED007A35E163
:1048B0007A4B03F51F53093301221A70774B03F526
:1048C0001E533C3300221A60734B03F51C5306330E
:1048D00001221A703B6801221A706F4B03F51C53BA
:1048E000033301221A707B6801221A706A4B03F5A8
:1048F0001A531033D3ED007AB3EE047A67EE877A59
:10490000654B03F51A53C3ED007A634B03F51A5355
:104910001833D3ED007AB3EE047A67EE877A5E4BF4
:1049200003F51A530833C3ED007AF7E05B4B03F548
:104930001F53093305221A70584B03F51E533C339D
:1049400000221A603B6801221A70534B03F51C5376
:10495000033301221A707B6801221A704E4B03F553
:104960001A531033D3ED007AB3EE047A67EE877AE8
:10497000494B03F51A53C3ED007ACFE0474B03F5DB
:104980001F53093306221A70444B03F51E533C3360
:1049900000221A603B6801221A703F4B03F51C533A
:1049A000033301221A707B6801221A703A4B03F517
:1049B0001A531033D3ED007AB3EE047A67EE877A98
:1049C000354B03F51A53C3ED007AA7E0334B03F5DB
:1049D0001F53093311221A70304B03F51E533C3319
:1049E00000221A603B6801221A702B4B03F51C53FE
:1049F000043301221A707B6801221A70264B03F5DA
:104A00001A530C33D3ED007AB3EE047A67EE877A4B
:104A1000214B03F51A53C3ED007A7FE01F4B03F5DA
:104A20001F53093302221A701C4B03F51E533C33EB
:104A300000221A60184B03F51C53063301221A702A
:104A40003B6801221A70144B03F51C5303330122F7
:104A50001A707B6801221A700F4B03F51A5310333A
:104A6000D3ED007AB3EE047A67EE877A0A4B03F54A
:104A70001A53C3ED007A084B03F51A531833D3EDDC
:104A8000007AB3EE047A67EE877A034B03F51A5384
:104A90000833C3ED007A41E050150020603C00204F
:104AA000214B03F51F53093313221A701E4B03F5D4
:104AB0001E533C3300221A601C4B03F51C53063373
:104AC00001221A703B6801221A70184B03F51C531F
:104AD000043301221A707B6801221A70134B03F50C
:104AE0001A530C33D3ED007AB3EE047A67EE877A6B
:104AF0000E4B03F51A53C3ED007A0C4B03F51A5312
:104B00001433D3ED007AB3EE047A67EE877A074B5D
:104B100003F51A530433C3ED007A00BF00BF0C370E
:104B2000BD465DF8047B7047603C002050150020B6
:104B300080B586B000AF786039605F4B03F51C53D9
:104B4000013300221A703B6801221A705A4B03F598
:104B50001C53043301221A707B6801221A70564BD1
:104B600003F51B5335331B781846FBF7DFFE02466F
:104B70000B464FA1D1E90001FCF77CF802460B4639
:104B800043EC172BB0EE470AF0EE670A05F0A4FBE2
:104B9000B0EE407AF0EE607A87ED027B4FF00002D3
:104BA000464BD7E90201FCF7ADF90346002B06D0CE
:104BB000D7E90201FCF70CFA0346FB7401E0FF237E
:104BC000FB74FA7C3C4B03F51B5337331B78D31A29
:104BD0007B61FB7C7A699A4201D900237B61384B67
:104BE00003F51E533C331B681A4613469B001344BF
:104BF0005B001A467B6993421ED8314B03F51F5365
:104C000009330C221A702E4B03F51E533C3300223D
:104C10001A603B6800221A707B6801221A70264BCA
:104C200003F51C53043300221A70234B03F51C5365
:104C3000013301221A7035E01F4B03F51B53343347
:104C40001B78022B2ED01E4B03F51F53093307226E
:104C50001A70194B03F51C53043300221A70164BBB
:104C600003F51C53053300221A70134B03F51C5334
:104C7000023300221A70104B03F51C530633002236
:104C80001A703B6800221A700B4B03F51C5300226C
:104C90001A707B6800221A70074B03F51C5303330C
:104CA00000221A7000BF1837BD4680BDAFF30080E8
:104CB00000000000004CED40501500200000704046
:104CC000603C00200000000080B586B000AF786036
:104CD00039605F4B03F51C53013300221A703B68A7
:104CE00001221A705A4B03F51C53043301221A7027
:104CF0007B6801221A70564B03F51B5332331B7825
:104D00001846FBF713FE02460B464FA1D1E90001FE
:104D1000FBF7B0FF02460B4643EC172BB0EE470AF9
:104D2000F0EE670A05F0D8FAB0EE407AF0EE607A5D
:104D300087ED027B4FF00002464BD7E90201FCF7FA
:104D4000E1F80346002B06D0D7E90201FCF740F951
:104D50000346FB7401E0FF23FB74FA7C3C4B03F534
:104D60001B5337331B78D31A7B61FB7C7A699A42D9
:104D700001D900237B61384B03F51E533C331B687C
:104D80001A4613469B0013445B001A467B69934204
:104D90001ED8314B03F51F5309330D221A702E4BC9
:104DA00003F51E533C3300221A603B6800221A7040
:104DB0007B6801221A70264B03F51C530433002232
:104DC0001A70234B03F51C53013301221A7035E08E
:104DD0001F4B03F51B5334331B78062B2ED01E4B71
:104DE00003F51F53093307221A70194B03F51C539F
:104DF000043300221A70164B03F51C5305330022AE
:104E00001A70134B03F51C53023300221A70104B17
:104E100003F51C53063300221A703B6800221A70F7
:104E20000B4B03F51C5300221A707B6800221A708A
:104E3000074B03F51C53033300221A7000BF1837C9
:104E4000BD4680BDAFF3008000000000004CED4087
:104E50005015002000007040603C00200000000061
:104E600080B58AB000AFF860B9607A608A4B03F50C
:104E70001C53063301221A70874B03F51C53013370
:104E800000221A70BB6801221A70834B03F51C5371
:104E9000043301221A70FB6801221A707B681B78A8
:104EA000002B5FD17C4B03F51B5335331B78184621
:104EB000FBF73CFD02460B4675A1D1E90001FBF76B
:104EC000D9FE02460B4643EC172BB0EE470AF0EE34
:104ED000670A05F001FAB0EE407AF0EE607A87EDED
:104EE000047B4FF000026D4BD7E90401FCF70AF890
:104EF0000346002B06D0D7E90401FCF769F8034606
:104F0000FB7701E0FF23FB77FA7F634B03F51B532D
:104F100037331B78D31A3B62FB7F3A6A9A4201D936
:104F200000233B623A6A5C4B03F51A533E331B88FD
:104F3000D31A7B627B6A002B01DA00237B62584B19
:104F400003F51E533C331B681A4613469B0013445B
:104F50005B001A467B6A9A422CBF01230023DBB216
:104F6000BB7701E00023BB77BB7F002B27D04C4BE6
:104F700003F51F5309330E221A70BB6800221A7002
:104F8000FB6801221A70444B03F51C5304330022C2
:104F90001A70414B03F51C53013301221A703E4B2A
:104FA00003F51A530C33D3ED007AB3EE047A67EEAF
:104FB000877A394B03F51A53C3ED007A61E07B68B9
:104FC0001B78002B27D0364B03F51F5309331522CE
:104FD0001A70334B03F51E533C3300221A602E4BDC
:104FE00003F51C53063300221A702B4B03F51A539A
:104FF0000C33D3ED007AB3EE047A67EE877A264B52
:1050000003F51A53C3ED007ABB6800221A70FB68DF
:1050100001221A7035E0204B03F51B5334331B7803
:10502000042B2ED01E4B03F51F53093307221A7091
:10503000194B03F51C53043300221A70164B03F569
:105040001C53053300221A70134B03F51C53023313
:1050500000221A70104B03F51C53063300221A70FD
:10506000BB6800221A700C4B03F51C5300221A7007
:10507000FB6800221A70084B03F51C53033300220F
:105080001A7000BF2837BD4680BD00BFAFF3008057
:1050900000000000004CED40501500200000704062
:1050A000603C00200000000080B586B000AFF860D2
:1050B000B9607A60A24B03F51C53063301221A70C3
:1050C0009F4B03F51C53013300221A70BB68012269
:1050D0001A709B4B03F51C53043301221A70FB68B2
:1050E00001221A707B681B78002B40F08F80944B54
:1050F00003F51B5332331B781846FBF717FC0246A7
:105100000B468DA1D1E90001FBF7B4FD02460B4629
:1051100043EC172BB0EE470AF0EE670A05F0DCF817
:10512000B0EE407AF0EE607A854B03F519531833F0
:1051300083ED007B824B03F519531833D3E900014B
:105140004FF000027F4BFBF7DDFE0346002B0CD037
:105150007B4B03F519531833D3E900231046194646
:10516000FBF736FF0346FB7501E0FF23FB75FA7D75
:10517000734B03F51B5337331B78D21A704B03F56F
:105180001A5334331A606E4B03F51A5334331A68CA
:10519000FB7D9A4205D96A4B03F51A53343300223A
:1051A0001A60674B03F51A5334331B681A46644B75
:1051B00003F51A533E331B88D21A614B03F51A5379
:1051C00024331A605E4B03F51A5324331B68002BFB
:1051D00005DA5B4B03F51A53243300221A605A4B4D
:1051E00003F51E533C331B681A4613469B001344B9
:1051F0005B001A46524B03F51A5324331B689A423C
:105200002CBF01230023DBB2BB7501E00023BB757B
:10521000BB7D002B27D04C4B03F51F5309330F22C6
:105220001A70BB6800221A70FB6801221A70444B86
:1052300003F51C53043300221A70414B03F51C5331
:10524000013301221A703E4B03F51A530C33D3ED90
:10525000007AB3EE047A67EE877A394B03F51A5376
:10526000C3ED007A61E07B681B78002B27D0364BBA
:1052700003F51F53093314221A70334B03F51E53E1
:105280003C3300221A602E4B03F51C5306330022D8
:105290001A702B4B03F51A530C33D3ED007AB3EE8F
:1052A000047A67EE877A264B03F51A53C3ED007A2A
:1052B000BB6800221A70FB6801221A7035E0204B8F
:1052C00003F51B5334331B78082B2ED01E4B03F5EC
:1052D0001F53093307221A70194B03F51C5304336B
:1052E00000221A70164B03F51C53053300221A7066
:1052F000134B03F51C53023300221A70104B03F5B5
:105300001C53063300221A70BB6800221A700C4B23
:1053100003F51C5300221A70FB6800221A70084B18
:1053200003F51C53033300221A7000BF1837BD4623
:1053300080BD00BFAFF3008000000000004CED40D6
:105340005015002000007040603C002080B582B005
:1053500000AF78607B6801225A60204B03F5175339
:1053600038334FF0FF321A601C4B03F517533C33B0
:1053700000221A60194B03F5175338331B680A22B1
:1053800000211748FDF72CFF02467B681A617B68F5
:105390001B694FF4E1311846FEF7FAF90F4B03F59C
:1053A000185301221A700D4B03F5185301330022D4
:1053B0001A707B681869094B03F5185301331A7882
:1053C000064B03F518531B780821FEF7EDF97B68AF
:1053D00001221A7200BF0837BD4680BD501500205B
:1053E0004C3B002080B584B002AF78607B6801221E
:1053F0005A60714B03F51853023300221A706E4B3A
:1054000003F51853043300221A606B4B03F518534D
:1054100004331A68684B03F5185302331B78194696
:105420001046FDF77BFB02467B689A627B68634A05
:105430005A627B689A6A7B685B6A19461046FDF778
:1054400091FB5D4B03F51B531C332B221A705A4BF7
:1054500003F51B531D3340221A707B68986A0023A2
:105460000193002300930223554A1D21FDF7C5FB3C
:105470004FF4FA7006F07AFC4F4B03F51B533F33A1
:105480002A221A707B68986A0023019301230093F3
:1054900001234C4A1D21FDF7B0FB03461A46464B3B
:1054A00003F51B533F331A70434B03F51B533F3334
:1054B0001B78002B10D17B68986A0123019300238D
:1054C000009301233F4A1D21FDF763FB01223D4963
:1054D0003D48FCF76BFE05E0374B03F51B533E33AD
:1054E00000221A70344B03F51B531C332A221A7006
:1054F000314B03F51B533E331B7823F00103DAB223
:105500002D4B03F51B531D331A707B68986A0023DB
:105510000193002300930223294A1D21FDF76DFB0F
:10552000254B03F51B531C330E221A70224B03F537
:105530001B531D3301221A707B68986A0023019364
:105540000023009302231E4A1D21FDF756FB1A4B30
:1055500003F51B531C335B221A70174B03F51B53C7
:105560001D3300221A707B68986A00230193002380
:1055700000930223124A1D21FDF73FFB0E4B03F55A
:105580001B531C332A221A700B4B03F51B531D337C
:1055900001221A707B68986A00230193002300930C
:1055A0000223074A1D21FDF728FB7B6801221A729E
:1055B00000BF0837BD4680BD50150020A086010001
:1055C0002C3C00204F3C00204E3C002080B483B097
:1055D00000AF78607B6800221A727B6801225A60F3
:1055E0007B6801221A637B6801225A637B68002270
:1055F0009A637B6800229A637B6803F138027B68B8
:10560000DA627B6801221A727B6800225A7200BF3C
:105610000C37BD465DF8047B704780B500AFFEF7E0
:1056200033FC00BF80BD00002DE9F04385B002AF20
:10563000824B03F518533033D3E90001804BD3E993
:105640000223FBF755FC0346002B08D17C4BD3E922
:1056500002017A4B03F518533033C3E90001774B4D
:1056600003F5185328331B68232276491846FEF7A2
:10567000AFF803461A46744B03F51B533D331A70BB
:10568000232270497148FCF791FD6C4B03F51F53C1
:105690000B331B78032B14D0032B19DC012B02D006
:1056A000022B07D014E0654B03F51F530B33042284
:1056B0001A70EAE0614B03F51F530B3304221A7092
:1056C000E3E05E4B03F51F530B3304221A70DCE05A
:1056D0005D4B03F51B533D331B78002B40F0D4800A
:1056E000594B03F5165331331B78162B40F09F802E
:1056F000554B03F5165332331B78222B00F087806D
:10570000552B40F08D804D4B03F51F530B33032277
:105710001A704D4B03F5165333331A784A4B03F581
:105720001B5334331A70484B03F5165334331A782D
:10573000454B03F51B5335331A70434B03F5165392
:1057400035331A78404B03F51B5336331A70042255
:105750003F494048FCF72AFD04223F493F48FCF7F7
:1057600025FD394B03F516533E331A78364B03F5B6
:105770001B5337331A70344B03F516533F331A78E3
:10578000314B03F51B5338331A7004223449354822
:10579000FCF70CFD042234493448FCF707FD0222D3
:1057A00033493448FCF702FD022233493348FCF701
:1057B000FDFC254B03F517530C331A78224B03F5E8
:1057C0001B5339331A7004222D492E48FCF7EEFC86
:1057D0001D4B03F5175311331A781B4B03F51B535D
:1057E0003A331A70184B03F5175312331A78164BC5
:1057F00003F51B533B331A70134B03F51753133345
:105800001A78114B03F51B533C331A703CE00B4BD9
:1058100003F51F530B3301221A7003F0C3FA33E070
:10582000064B03F51F530B3304221A702CE0034B75
:1058300003F51F530B3304221A7025E0603C00204F
:1058400080060020243B002050150020013B002052
:10585000063B0020DC3B00200A3B0020E03B002010
:10586000103B0020E43B0020143B0020E83B0020DC
:10587000183B00200C3C00201A3B00200E3C00206E
:105880001D3B0020EC3B002000BF544B03F5175399
:105890003833D3E90001524BD3E90023FBF728FB4F
:1058A0000346002B08D14E4BD3E900014B4B03F5C7
:1058B00017533833C3E900014A4B03F51B533D33FB
:1058C00001221A70454B03F5185310331868002352
:1058D0000193012300930123434A1D21FDF78DF914
:1058E00003461A463F4B03F51B533D331A703D4B9D
:1058F00003F51B533D331B78002B40F08380374B5F
:1059000003F5185310331868012301930023009303
:105910000623364A1D21FDF73CF906223349344857
:10592000FCF744FC022232493248FCF73FFC2D4B85
:1059300003F51B5319331A782A4B03F51B531A33FB
:105940001A70284B03F51B5318331A78254B03F5AF
:105950001B531B331A70022227492548FCF726FCEB
:10596000022226492348FCF721FC1E4B03F51B535A
:1059700019331A781B4B03F51B531A331A70194B42
:1059800003F51B5318331A78164B03F51B531B33BF
:105990001A70022218491948FCF708FC022218491B
:1059A0001448FCF703FC0F4B03F51B5319331A780B
:1059B0000C4B03F51B531A331A700A4B03F51B5398
:1059C00018331A78074B03F51B531B331A70022246
:1059D00009490B48FCF7EAFB26E000BF603C0020C9
:1059E00080060020501500204D3C0020B63B0020D2
:1059F000B03B0020283C00202A3C0020B23B002085
:105A0000B43B0020AA4B03F51953203300221A801F
:105A1000A74B03F51953223300221A80A44B03F538
:105A20001953243300221A80A14B03F51953203354
:105A3000B3F900309B101BB21846FAF787FF0246F5
:105A40000B46FAF737FE02460B461046194696A358
:105A5000D3E90023FAF7E4FF02460B461046194645
:105A60004FF00002934BFBF705F902460B469049B5
:105A700001F51951C1E900238D4B03F51953223368
:105A8000B3F900309B101BB21846FAF75FFF0246CD
:105A90000B46FAF70FFE02460B461046194682A344
:105AA000D3E90023FAF7BCFF02460B46104619461D
:105AB0004FF000027F4BFBF7DDF802460B46104625
:105AC00019467B4B03F519530833C3E90001784BA2
:105AD00003F519532433B3F900309B101BB2184659
:105AE000FAF734FF02460B46FAF7E4FD02460B468E
:105AF000104619466CA3D3E90023FAF791FF02463A
:105B00000B46104619464FF000026A4BFBF7B2F8FD
:105B100002460B4610461946654B03F519531033E0
:105B2000C3E90001624B03F51953D3E90001604B4F
:105B300003F51953D3E90023FAF772FF02460B4627
:105B400014461D465A4B03F519530833D3E9000197
:105B5000574B03F519530833D3E90023FAF760FFD5
:105B600002460B4620462946FAF7A4FD02460B469C
:105B700014461D464E4B03F519531033D3E900016B
:105B80004B4B03F519531033D3E90023FAF748FFC1
:105B900002460B4620462946FAF78CFD02460B4684
:105BA00043EC172BB0EE470AF0EE670A08F078FCDA
:105BB000B0EE407AF0EE607A3D4B03F5185338337F
:105BC00083ED007B3C4B5B7A002B02D03A4B0022EA
:105BD0005A72394BDB6A7B607B681B68012B00F0D3
:105BE00073817B6800221A717B6801221A60304B36
:105BF00003F51A53203300221A6019E02C4B03F5E9
:105C00001A5320331B687A680133DB00D1184FF038
:105C100000024FF00003C1E90023254B03F51A539E
:105C200020331B685A1C224B03F51A5320331A6089
:105C30001F4B03F51A5320331B68B3F5C87FDDDB18
:105C40001B4B03F51A53203300221A601AE0184B3D
:105C500003F51A5320331B687A6803F29113DB00B3
:105C6000D1184FF000024FF00003C1E90023104BA0
:105C700003F51A5320331B685A1C0D4B03F51A53B6
:105C800020331A600A4B03F51A5320331B68B3F50F
:105C9000C87FDCDB064B03F51A53203300221A6061
:105CA00027E000BFAFF3008008AC1C5A643BCF3F35
:105CB0005015002000408F40603C0020B64B03F59B
:105CC0001A5320331B687A6803F22133DB00D118A2
:105CD0004FF000024FF00003C1E90023AE4B03F583
:105CE0001A5320331B685A1CAB4B03F51A5320334D
:105CF0001A60A94B03F51A5320331B68B3F5C87F0C
:105D0000DCDB7B6803F5165308334FF000004FF0DF
:105D10000001C3E900017B6803F5165310334FF00F
:105D200000004FF00001C3E900017B6803F5165342
